{
  "_format": "hh-sol-artifact-1",
  "contractName": "FarmNFT",
  "sourceName": "contracts/FarmNFT.sol",
  "abi": [
    {
      "inputs": [
        {
          "internalType": "address",
          "name": "initialOwner",
          "type": "address"
        }
      ],
      "stateMutability": "nonpayable",
      "type": "constructor"
    },
    {
      "inputs": [
        {
          "internalType": "address",
          "name": "sender",
          "type": "address"
        },
        {
          "internalType": "uint256",
          "name": "tokenId",
          "type": "uint256"
        },
        {
          "internalType": "address",
          "name": "owner",
          "type": "address"
        }
      ],
      "name": "ERC721IncorrectOwner",
      "type": "error"
    },
    {
      "inputs": [
        {
          "internalType": "address",
          "name": "operator",
          "type": "address"
        },
        {
          "internalType": "uint256",
          "name": "tokenId",
          "type": "uint256"
        }
      ],
      "name": "ERC721InsufficientApproval",
      "type": "error"
    },
    {
      "inputs": [
        {
          "internalType": "address",
          "name": "approver",
          "type": "address"
        }
      ],
      "name": "ERC721InvalidApprover",
      "type": "error"
    },
    {
      "inputs": [
        {
          "internalType": "address",
          "name": "operator",
          "type": "address"
        }
      ],
      "name": "ERC721InvalidOperator",
      "type": "error"
    },
    {
      "inputs": [
        {
          "internalType": "address",
          "name": "owner",
          "type": "address"
        }
      ],
      "name": "ERC721InvalidOwner",
      "type": "error"
    },
    {
      "inputs": [
        {
          "internalType": "address",
          "name": "receiver",
          "type": "address"
        }
      ],
      "name": "ERC721InvalidReceiver",
      "type": "error"
    },
    {
      "inputs": [
        {
          "internalType": "address",
          "name": "sender",
          "type": "address"
        }
      ],
      "name": "ERC721InvalidSender",
      "type": "error"
    },
    {
      "inputs": [
        {
          "internalType": "uint256",
          "name": "tokenId",
          "type": "uint256"
        }
      ],
      "name": "ERC721NonexistentToken",
      "type": "error"
    },
    {
      "inputs": [
        {
          "internalType": "address",
          "name": "owner",
          "type": "address"
        }
      ],
      "name": "OwnableInvalidOwner",
      "type": "error"
    },
    {
      "inputs": [
        {
          "internalType": "address",
          "name": "account",
          "type": "address"
        }
      ],
      "name": "OwnableUnauthorizedAccount",
      "type": "error"
    },
    {
      "anonymous": false,
      "inputs": [
        {
          "indexed": true,
          "internalType": "address",
          "name": "owner",
          "type": "address"
        },
        {
          "indexed": true,
          "internalType": "address",
          "name": "approved",
          "type": "address"
        },
        {
          "indexed": true,
          "internalType": "uint256",
          "name": "tokenId",
          "type": "uint256"
        }
      ],
      "name": "Approval",
      "type": "event"
    },
    {
      "anonymous": false,
      "inputs": [
        {
          "indexed": true,
          "internalType": "address",
          "name": "owner",
          "type": "address"
        },
        {
          "indexed": true,
          "internalType": "address",
          "name": "operator",
          "type": "address"
        },
        {
          "indexed": false,
          "internalType": "bool",
          "name": "approved",
          "type": "bool"
        }
      ],
      "name": "ApprovalForAll",
      "type": "event"
    },
    {
      "anonymous": false,
      "inputs": [
        {
          "indexed": false,
          "internalType": "uint256",
          "name": "_fromTokenId",
          "type": "uint256"
        },
        {
          "indexed": false,
          "internalType": "uint256",
          "name": "_toTokenId",
          "type": "uint256"
        }
      ],
      "name": "BatchMetadataUpdate",
      "type": "event"
    },
    {
      "anonymous": false,
      "inputs": [
        {
          "indexed": false,
          "internalType": "uint256",
          "name": "_tokenId",
          "type": "uint256"
        }
      ],
      "name": "MetadataUpdate",
      "type": "event"
    },
    {
      "anonymous": false,
      "inputs": [
        {
          "indexed": true,
          "internalType": "address",
          "name": "previousOwner",
          "type": "address"
        },
        {
          "indexed": true,
          "internalType": "address",
          "name": "newOwner",
          "type": "address"
        }
      ],
      "name": "OwnershipTransferred",
      "type": "event"
    },
    {
      "anonymous": false,
      "inputs": [
        {
          "indexed": true,
          "internalType": "address",
          "name": "from",
          "type": "address"
        },
        {
          "indexed": true,
          "internalType": "address",
          "name": "to",
          "type": "address"
        },
        {
          "indexed": true,
          "internalType": "uint256",
          "name": "tokenId",
          "type": "uint256"
        }
      ],
      "name": "Transfer",
      "type": "event"
    },
    {
      "inputs": [
        {
          "internalType": "string",
          "name": "cid",
          "type": "string"
        }
      ],
      "name": "addCID",
      "outputs": [],
      "stateMutability": "nonpayable",
      "type": "function"
    },
    {
      "inputs": [
        {
          "internalType": "address",
          "name": "to",
          "type": "address"
        },
        {
          "internalType": "uint256",
          "name": "tokenId",
          "type": "uint256"
        }
      ],
      "name": "approve",
      "outputs": [],
      "stateMutability": "nonpayable",
      "type": "function"
    },
    {
      "inputs": [
        {
          "internalType": "address",
          "name": "owner",
          "type": "address"
        }
      ],
      "name": "balanceOf",
      "outputs": [
        {
          "internalType": "uint256",
          "name": "",
          "type": "uint256"
        }
      ],
      "stateMutability": "view",
      "type": "function"
    },
    {
      "inputs": [
        {
          "internalType": "uint256",
          "name": "tokenId",
          "type": "uint256"
        }
      ],
      "name": "getApproved",
      "outputs": [
        {
          "internalType": "address",
          "name": "",
          "type": "address"
        }
      ],
      "stateMutability": "view",
      "type": "function"
    },
    {
      "inputs": [
        {
          "internalType": "uint256",
          "name": "index",
          "type": "uint256"
        }
      ],
      "name": "getCID",
      "outputs": [
        {
          "internalType": "string",
          "name": "",
          "type": "string"
        }
      ],
      "stateMutability": "view",
      "type": "function"
    },
    {
      "inputs": [
        {
          "internalType": "address",
          "name": "owner",
          "type": "address"
        },
        {
          "internalType": "address",
          "name": "operator",
          "type": "address"
        }
      ],
      "name": "isApprovedForAll",
      "outputs": [
        {
          "internalType": "bool",
          "name": "",
          "type": "bool"
        }
      ],
      "stateMutability": "view",
      "type": "function"
    },
    {
      "inputs": [],
      "name": "mint",
      "outputs": [
        {
          "internalType": "uint256",
          "name": "",
          "type": "uint256"
        }
      ],
      "stateMutability": "nonpayable",
      "type": "function"
    },
    {
      "inputs": [],
      "name": "name",
      "outputs": [
        {
          "internalType": "string",
          "name": "",
          "type": "string"
        }
      ],
      "stateMutability": "view",
      "type": "function"
    },
    {
      "inputs": [],
      "name": "owner",
      "outputs": [
        {
          "internalType": "address",
          "name": "",
          "type": "address"
        }
      ],
      "stateMutability": "view",
      "type": "function"
    },
    {
      "inputs": [
        {
          "internalType": "uint256",
          "name": "tokenId",
          "type": "uint256"
        }
      ],
      "name": "ownerOf",
      "outputs": [
        {
          "internalType": "address",
          "name": "",
          "type": "address"
        }
      ],
      "stateMutability": "view",
      "type": "function"
    },
    {
      "inputs": [],
      "name": "renounceOwnership",
      "outputs": [],
      "stateMutability": "nonpayable",
      "type": "function"
    },
    {
      "inputs": [
        {
          "internalType": "address",
          "name": "from",
          "type": "address"
        },
        {
          "internalType": "address",
          "name": "to",
          "type": "address"
        },
        {
          "internalType": "uint256",
          "name": "tokenId",
          "type": "uint256"
        }
      ],
      "name": "safeTransferFrom",
      "outputs": [],
      "stateMutability": "nonpayable",
      "type": "function"
    },
    {
      "inputs": [
        {
          "internalType": "address",
          "name": "from",
          "type": "address"
        },
        {
          "internalType": "address",
          "name": "to",
          "type": "address"
        },
        {
          "internalType": "uint256",
          "name": "tokenId",
          "type": "uint256"
        },
        {
          "internalType": "bytes",
          "name": "data",
          "type": "bytes"
        }
      ],
      "name": "safeTransferFrom",
      "outputs": [],
      "stateMutability": "nonpayable",
      "type": "function"
    },
    {
      "inputs": [
        {
          "internalType": "address",
          "name": "operator",
          "type": "address"
        },
        {
          "internalType": "bool",
          "name": "approved",
          "type": "bool"
        }
      ],
      "name": "setApprovalForAll",
      "outputs": [],
      "stateMutability": "nonpayable",
      "type": "function"
    },
    {
      "inputs": [
        {
          "internalType": "bytes4",
          "name": "interfaceId",
          "type": "bytes4"
        }
      ],
      "name": "supportsInterface",
      "outputs": [
        {
          "internalType": "bool",
          "name": "",
          "type": "bool"
        }
      ],
      "stateMutability": "view",
      "type": "function"
    },
    {
      "inputs": [],
      "name": "symbol",
      "outputs": [
        {
          "internalType": "string",
          "name": "",
          "type": "string"
        }
      ],
      "stateMutability": "view",
      "type": "function"
    },
    {
      "inputs": [
        {
          "internalType": "uint256",
          "name": "tokenId",
          "type": "uint256"
        }
      ],
      "name": "tokenURI",
      "outputs": [
        {
          "internalType": "string",
          "name": "",
          "type": "string"
        }
      ],
      "stateMutability": "view",
      "type": "function"
    },
    {
      "inputs": [],
      "name": "totalCIDs",
      "outputs": [
        {
          "internalType": "uint256",
          "name": "",
          "type": "uint256"
        }
      ],
      "stateMutability": "view",
      "type": "function"
    },
    {
      "inputs": [
        {
          "internalType": "address",
          "name": "from",
          "type": "address"
        },
        {
          "internalType": "address",
          "name": "to",
          "type": "address"
        },
        {
          "internalType": "uint256",
          "name": "tokenId",
          "type": "uint256"
        }
      ],
      "name": "transferFrom",
      "outputs": [],
      "stateMutability": "nonpayable",
      "type": "function"
    },
    {
      "inputs": [
        {
          "internalType": "address",
          "name": "newOwner",
          "type": "address"
        }
      ],
      "name": "transferOwnership",
      "outputs": [],
      "stateMutability": "nonpayable",
      "type": "function"
    }
  ],
  "bytecode": "0x60806040523480156200001157600080fd5b50604051620031be380380620031be833981810160405281019062000037919062000288565b806040518060400160405280600781526020017f4661726d4e4654000000000000000000000000000000000000000000000000008152506040518060400160405280600481526020017f464e4654000000000000000000000000000000000000000000000000000000008152508160009081620000b5919062000534565b508060019081620000c7919062000534565b505050600073ffffffffffffffffffffffffffffffffffffffff168173ffffffffffffffffffffffffffffffffffffffff16036200013f5760006040517f1e4fbdf70000000000000000000000000000000000000000000000000000000081526004016200013691906200062c565b60405180910390fd5b62000150816200015860201b60201c565b505062000649565b6000600760009054906101000a900473ffffffffffffffffffffffffffffffffffffffff16905081600760006101000a81548173ffffffffffffffffffffffffffffffffffffffff021916908373ffffffffffffffffffffffffffffffffffffffff1602179055508173ffffffffffffffffffffffffffffffffffffffff168173ffffffffffffffffffffffffffffffffffffffff167f8be0079c531659141344cd1fd0a4f28419497f9722a3daafe3b4186f6b6457e060405160405180910390a35050565b600080fd5b600073ffffffffffffffffffffffffffffffffffffffff82169050919050565b6000620002508262000223565b9050919050565b620002628162000243565b81146200026e57600080fd5b50565b600081519050620002828162000257565b92915050565b600060208284031215620002a157620002a06200021e565b5b6000620002b18482850162000271565b91505092915050565b600081519050919050565b7f4e487b7100000000000000000000000000000000000000000000000000000000600052604160045260246000fd5b7f4e487b7100000000000000000000000000000000000000000000000000000000600052602260045260246000fd5b600060028204905060018216806200033c57607f821691505b602082108103620003525762000351620002f4565b5b50919050565b60008190508160005260206000209050919050565b60006020601f8301049050919050565b600082821b905092915050565b600060088302620003bc7fffffffffffffffffffffffffffffffffffffffffffffffffffffffffffffffff826200037d565b620003c886836200037d565b95508019841693508086168417925050509392505050565b6000819050919050565b6000819050919050565b6000620004156200040f6200040984620003e0565b620003ea565b620003e0565b9050919050565b6000819050919050565b6200043183620003f4565b6200044962000440826200041c565b8484546200038a565b825550505050565b600090565b6200046062000451565b6200046d81848462000426565b505050565b5b8181101562000495576200048960008262000456565b60018101905062000473565b5050565b601f821115620004e457620004ae8162000358565b620004b9846200036d565b81016020851015620004c9578190505b620004e1620004d8856200036d565b83018262000472565b50505b505050565b600082821c905092915050565b60006200050960001984600802620004e9565b1980831691505092915050565b6000620005248383620004f6565b9150826002028217905092915050565b6200053f82620002ba565b67ffffffffffffffff8111156200055b576200055a620002c5565b5b62000567825462000323565b6200057482828562000499565b600060209050601f831160018114620005ac576000841562000597578287015190505b620005a3858262000516565b86555062000613565b601f198416620005bc8662000358565b60005b82811015620005e657848901518255600182019150602085019450602081019050620005bf565b8683101562000606578489015162000602601f891682620004f6565b8355505b6001600288020188555050505b505050505050565b620006268162000243565b82525050565b60006020820190506200064360008301846200061b565b92915050565b612b6580620006596000396000f3fe608060405234801561001057600080fd5b506004361061012c5760003560e01c8063715018a6116100ad578063b88d4fde11610071578063b88d4fde14610331578063c87b56dd1461034d578063e985e9c51461037d578063f2fde38b146103ad578063fa0f1346146103c95761012c565b8063715018a61461029f5780638da5cb5b146102a9578063913a2ffe146102c757806395d89b41146102f7578063a22cb465146103155761012c565b806323b872dd116100f457806323b872dd146101e957806342842e0e146102055780635b84362b146102215780636352211e1461023f57806370a082311461026f5761012c565b806301ffc9a71461013157806306fdde0314610161578063081812fc1461017f578063095ea7b3146101af5780631249c58b146101cb575b600080fd5b61014b60048036038101906101469190611da6565b6103e5565b6040516101589190611dee565b60405180910390f35b610169610446565b6040516101769190611e99565b60405180910390f35b61019960048036038101906101949190611ef1565b6104d8565b6040516101a69190611f5f565b60405180910390f35b6101c960048036038101906101c49190611fa6565b6104f4565b005b6101d361050a565b6040516101e09190611ff5565b60405180910390f35b61020360048036038101906101fe9190612010565b6106a1565b005b61021f600480360381019061021a9190612010565b6107a3565b005b6102296107c3565b6040516102369190611ff5565b60405180910390f35b61025960048036038101906102549190611ef1565b6107d0565b6040516102669190611f5f565b60405180910390f35b61028960048036038101906102849190612063565b6107e2565b6040516102969190611ff5565b60405180910390f35b6102a761089c565b005b6102b16108b0565b6040516102be9190611f5f565b60405180910390f35b6102e160048036038101906102dc9190611ef1565b6108da565b6040516102ee9190611e99565b60405180910390f35b6102ff6109d1565b60405161030c9190611e99565b60405180910390f35b61032f600480360381019061032a91906120bc565b610a63565b005b61034b60048036038101906103469190612231565b610a79565b005b61036760048036038101906103629190611ef1565b610a9e565b6040516103749190611e99565b60405180910390f35b610397600480360381019061039291906122b4565b610bb1565b6040516103a49190611dee565b60405180910390f35b6103c760048036038101906103c29190612063565b610c45565b005b6103e360048036038101906103de9190612395565b610ccb565b005b6000634906490660e01b7bffffffffffffffffffffffffffffffffffffffffffffffffffffffff1916827bffffffffffffffffffffffffffffffffffffffffffffffffffffffff1916148061043f575061043e82610d0b565b5b9050919050565b6060600080546104559061240d565b80601f01602080910402602001604051908101604052809291908181526020018280546104819061240d565b80156104ce5780601f106104a3576101008083540402835291602001916104ce565b820191906000526020600020905b8154815290600101906020018083116104b157829003601f168201915b5050505050905090565b60006104e382610ded565b506104ed82610e75565b9050919050565b6105068282610501610eb2565b610eba565b5050565b60008060098054905011610553576040517f08c379a000000000000000000000000000000000000000000000000000000000815260040161054a9061248a565b60405180910390fd5b600060085490506008600081548092919061056d906124d9565b9190505550600060098054905042338460405160200161058f9392919061258a565b6040516020818303038152906040528051906020012060001c6105b291906125f6565b90506000600982815481106105ca576105c9612627565b5b9060005260206000200180546105df9061240d565b80601f016020809104026020016040519081016040528092919081815260200182805461060b9061240d565b80156106585780601f1061062d57610100808354040283529160200191610658565b820191906000526020600020905b81548152906001019060200180831161063b57829003601f168201915b5050505050905060008160405160200161067291906126b8565b604051602081830303815290604052905061068d3385610ecc565b6106978482610fc5565b8394505050505090565b600073ffffffffffffffffffffffffffffffffffffffff168273ffffffffffffffffffffffffffffffffffffffff16036107135760006040517f64a0ae9200000000000000000000000000000000000000000000000000000000815260040161070a9190611f5f565b60405180910390fd5b60006107278383610722610eb2565b611021565b90508373ffffffffffffffffffffffffffffffffffffffff168173ffffffffffffffffffffffffffffffffffffffff161461079d578382826040517f64283d7b000000000000000000000000000000000000000000000000000000008152600401610794939291906126de565b60405180910390fd5b50505050565b6107be83838360405180602001604052806000815250610a79565b505050565b6000600980549050905090565b60006107db82610ded565b9050919050565b60008073ffffffffffffffffffffffffffffffffffffffff168273ffffffffffffffffffffffffffffffffffffffff16036108555760006040517f89c62b6400000000000000000000000000000000000000000000000000000000815260040161084c9190611f5f565b60405180910390fd5b600360008373ffffffffffffffffffffffffffffffffffffffff1673ffffffffffffffffffffffffffffffffffffffff168152602001908152602001600020549050919050565b6108a461123b565b6108ae60006112c2565b565b6000600760009054906101000a900473ffffffffffffffffffffffffffffffffffffffff16905090565b60606009805490508210610923576040517f08c379a000000000000000000000000000000000000000000000000000000000815260040161091a90612761565b60405180910390fd5b6009828154811061093757610936612627565b5b90600052602060002001805461094c9061240d565b80601f01602080910402602001604051908101604052809291908181526020018280546109789061240d565b80156109c55780601f1061099a576101008083540402835291602001916109c5565b820191906000526020600020905b8154815290600101906020018083116109a857829003601f168201915b50505050509050919050565b6060600180546109e09061240d565b80601f0160208091040260200160405190810160405280929190818152602001828054610a0c9061240d565b8015610a595780601f10610a2e57610100808354040283529160200191610a59565b820191906000526020600020905b815481529060010190602001808311610a3c57829003601f168201915b5050505050905090565b610a75610a6e610eb2565b8383611388565b5050565b610a848484846106a1565b610a98610a8f610eb2565b858585856114f7565b50505050565b6060610aa982610ded565b506000600660008481526020019081526020016000208054610aca9061240d565b80601f0160208091040260200160405190810160405280929190818152602001828054610af69061240d565b8015610b435780601f10610b1857610100808354040283529160200191610b43565b820191906000526020600020905b815481529060010190602001808311610b2657829003601f168201915b505050505090506000610b546116a8565b90506000815103610b69578192505050610bac565b600082511115610b9e578082604051602001610b86929190612781565b60405160208183030381529060405292505050610bac565b610ba7846116bf565b925050505b919050565b6000600560008473ffffffffffffffffffffffffffffffffffffffff1673ffffffffffffffffffffffffffffffffffffffff16815260200190815260200160002060008373ffffffffffffffffffffffffffffffffffffffff1673ffffffffffffffffffffffffffffffffffffffff16815260200190815260200160002060009054906101000a900460ff16905092915050565b610c4d61123b565b600073ffffffffffffffffffffffffffffffffffffffff168173ffffffffffffffffffffffffffffffffffffffff1603610cbf5760006040517f1e4fbdf7000000000000000000000000000000000000000000000000000000008152600401610cb69190611f5f565b60405180910390fd5b610cc8816112c2565b50565b610cd361123b565b600981908060018154018082558091505060019003906000526020600020016000909190919091509081610d079190612951565b5050565b60007f80ac58cd000000000000000000000000000000000000000000000000000000007bffffffffffffffffffffffffffffffffffffffffffffffffffffffff1916827bffffffffffffffffffffffffffffffffffffffffffffffffffffffff19161480610dd657507f5b5e139f000000000000000000000000000000000000000000000000000000007bffffffffffffffffffffffffffffffffffffffffffffffffffffffff1916827bffffffffffffffffffffffffffffffffffffffffffffffffffffffff1916145b80610de65750610de582611728565b5b9050919050565b600080610df983611792565b9050600073ffffffffffffffffffffffffffffffffffffffff168173ffffffffffffffffffffffffffffffffffffffff1603610e6c57826040517f7e273289000000000000000000000000000000000000000000000000000000008152600401610e639190611ff5565b60405180910390fd5b80915050919050565b60006004600083815260200190815260200160002060009054906101000a900473ffffffffffffffffffffffffffffffffffffffff169050919050565b600033905090565b610ec783838360016117cf565b505050565b600073ffffffffffffffffffffffffffffffffffffffff168273ffffffffffffffffffffffffffffffffffffffff1603610f3e5760006040517f64a0ae92000000000000000000000000000000000000000000000000000000008152600401610f359190611f5f565b60405180910390fd5b6000610f4c83836000611021565b9050600073ffffffffffffffffffffffffffffffffffffffff168173ffffffffffffffffffffffffffffffffffffffff1614610fc05760006040517f73c6ac6e000000000000000000000000000000000000000000000000000000008152600401610fb79190611f5f565b60405180910390fd5b505050565b80600660008481526020019081526020016000209081610fe59190612951565b507ff8e1a15aba9398e019f0b49df1a4fde98ee17ae345cb5f6b5e2c27f5033e8ce7826040516110159190611ff5565b60405180910390a15050565b60008061102d84611792565b9050600073ffffffffffffffffffffffffffffffffffffffff168373ffffffffffffffffffffffffffffffffffffffff161461106f5761106e818486611994565b5b600073ffffffffffffffffffffffffffffffffffffffff168173ffffffffffffffffffffffffffffffffffffffff1614611100576110b16000856000806117cf565b6001600360008373ffffffffffffffffffffffffffffffffffffffff1673ffffffffffffffffffffffffffffffffffffffff168152602001908152602001600020600082825403925050819055505b600073ffffffffffffffffffffffffffffffffffffffff168573ffffffffffffffffffffffffffffffffffffffff1614611183576001600360008773ffffffffffffffffffffffffffffffffffffffff1673ffffffffffffffffffffffffffffffffffffffff168152602001908152602001600020600082825401925050819055505b846002600086815260200190815260200160002060006101000a81548173ffffffffffffffffffffffffffffffffffffffff021916908373ffffffffffffffffffffffffffffffffffffffff160217905550838573ffffffffffffffffffffffffffffffffffffffff168273ffffffffffffffffffffffffffffffffffffffff167fddf252ad1be2c89b69c2b068fc378daa952ba7f163c4a11628f55a4df523b3ef60405160405180910390a4809150509392505050565b611243610eb2565b73ffffffffffffffffffffffffffffffffffffffff166112616108b0565b73ffffffffffffffffffffffffffffffffffffffff16146112c057611284610eb2565b6040517f118cdaa70000000000000000000000000000000000000000000000000000000081526004016112b79190611f5f565b60405180910390fd5b565b6000600760009054906101000a900473ffffffffffffffffffffffffffffffffffffffff16905081600760006101000a81548173ffffffffffffffffffffffffffffffffffffffff021916908373ffffffffffffffffffffffffffffffffffffffff1602179055508173ffffffffffffffffffffffffffffffffffffffff168173ffffffffffffffffffffffffffffffffffffffff167f8be0079c531659141344cd1fd0a4f28419497f9722a3daafe3b4186f6b6457e060405160405180910390a35050565b600073ffffffffffffffffffffffffffffffffffffffff168273ffffffffffffffffffffffffffffffffffffffff16036113f957816040517f5b08ba180000000000000000000000000000000000000000000000000000000081526004016113f09190611f5f565b60405180910390fd5b80600560008573ffffffffffffffffffffffffffffffffffffffff1673ffffffffffffffffffffffffffffffffffffffff16815260200190815260200160002060008473ffffffffffffffffffffffffffffffffffffffff1673ffffffffffffffffffffffffffffffffffffffff16815260200190815260200160002060006101000a81548160ff0219169083151502179055508173ffffffffffffffffffffffffffffffffffffffff168373ffffffffffffffffffffffffffffffffffffffff167f17307eab39ab6107e8899845ad3d59bd9653f200f220920489ca2b5937696c31836040516114ea9190611dee565b60405180910390a3505050565b60008373ffffffffffffffffffffffffffffffffffffffff163b11156116a1578273ffffffffffffffffffffffffffffffffffffffff1663150b7a02868685856040518563ffffffff1660e01b81526004016115569493929190612a78565b6020604051808303816000875af192505050801561159257506040513d601f19601f8201168201806040525081019061158f9190612ad9565b60015b611616573d80600081146115c2576040519150601f19603f3d011682016040523d82523d6000602084013e6115c7565b606091505b50600081510361160e57836040517f64a0ae920000000000000000000000000000000000000000000000000000000081526004016116059190611f5f565b60405180910390fd5b805181602001fd5b63150b7a0260e01b7bffffffffffffffffffffffffffffffffffffffffffffffffffffffff1916817bffffffffffffffffffffffffffffffffffffffffffffffffffffffff19161461169f57836040517f64a0ae920000000000000000000000000000000000000000000000000000000081526004016116969190611f5f565b60405180910390fd5b505b5050505050565b606060405180602001604052806000815250905090565b60606116ca82610ded565b5060006116d56116a8565b905060008151116116f55760405180602001604052806000815250611720565b806116ff84611a58565b604051602001611710929190612781565b6040516020818303038152906040525b915050919050565b60007f01ffc9a7000000000000000000000000000000000000000000000000000000007bffffffffffffffffffffffffffffffffffffffffffffffffffffffff1916827bffffffffffffffffffffffffffffffffffffffffffffffffffffffff1916149050919050565b60006002600083815260200190815260200160002060009054906101000a900473ffffffffffffffffffffffffffffffffffffffff169050919050565b80806118085750600073ffffffffffffffffffffffffffffffffffffffff168273ffffffffffffffffffffffffffffffffffffffff1614155b1561193c57600061181884610ded565b9050600073ffffffffffffffffffffffffffffffffffffffff168373ffffffffffffffffffffffffffffffffffffffff161415801561188357508273ffffffffffffffffffffffffffffffffffffffff168173ffffffffffffffffffffffffffffffffffffffff1614155b801561189657506118948184610bb1565b155b156118d857826040517fa9fbf51f0000000000000000000000000000000000000000000000000000000081526004016118cf9190611f5f565b60405180910390fd5b811561193a57838573ffffffffffffffffffffffffffffffffffffffff168273ffffffffffffffffffffffffffffffffffffffff167f8c5be1e5ebec7d5bd14f71427d1e84f3dd0314c0f7b2291e5b200ac8c7c3b92560405160405180910390a45b505b836004600085815260200190815260200160002060006101000a81548173ffffffffffffffffffffffffffffffffffffffff021916908373ffffffffffffffffffffffffffffffffffffffff16021790555050505050565b61199f838383611b26565b611a5357600073ffffffffffffffffffffffffffffffffffffffff168373ffffffffffffffffffffffffffffffffffffffff1603611a1457806040517f7e273289000000000000000000000000000000000000000000000000000000008152600401611a0b9190611ff5565b60405180910390fd5b81816040517f177e802f000000000000000000000000000000000000000000000000000000008152600401611a4a929190612b06565b60405180910390fd5b505050565b606060006001611a6784611be7565b01905060008167ffffffffffffffff811115611a8657611a85612106565b5b6040519080825280601f01601f191660200182016040528015611ab85781602001600182028036833780820191505090505b509050600082602001820190505b600115611b1b578080600190039150507f3031323334353637383961626364656600000000000000000000000000000000600a86061a8153600a8581611b0f57611b0e6125c7565b5b04945060008503611ac6575b819350505050919050565b60008073ffffffffffffffffffffffffffffffffffffffff168373ffffffffffffffffffffffffffffffffffffffff1614158015611bde57508273ffffffffffffffffffffffffffffffffffffffff168473ffffffffffffffffffffffffffffffffffffffff161480611b9f5750611b9e8484610bb1565b5b80611bdd57508273ffffffffffffffffffffffffffffffffffffffff16611bc583610e75565b73ffffffffffffffffffffffffffffffffffffffff16145b5b90509392505050565b600080600090507a184f03e93ff9f4daa797ed6e38ed64bf6a1f0100000000000000008310611c45577a184f03e93ff9f4daa797ed6e38ed64bf6a1f0100000000000000008381611c3b57611c3a6125c7565b5b0492506040810190505b6d04ee2d6d415b85acef81000000008310611c82576d04ee2d6d415b85acef81000000008381611c7857611c776125c7565b5b0492506020810190505b662386f26fc100008310611cb157662386f26fc100008381611ca757611ca66125c7565b5b0492506010810190505b6305f5e1008310611cda576305f5e1008381611cd057611ccf6125c7565b5b0492506008810190505b6127108310611cff576127108381611cf557611cf46125c7565b5b0492506004810190505b60648310611d225760648381611d1857611d176125c7565b5b0492506002810190505b600a8310611d31576001810190505b80915050919050565b6000604051905090565b600080fd5b600080fd5b60007fffffffff0000000000000000000000000000000000000000000000000000000082169050919050565b611d8381611d4e565b8114611d8e57600080fd5b50565b600081359050611da081611d7a565b92915050565b600060208284031215611dbc57611dbb611d44565b5b6000611dca84828501611d91565b91505092915050565b60008115159050919050565b611de881611dd3565b82525050565b6000602082019050611e036000830184611ddf565b92915050565b600081519050919050565b600082825260208201905092915050565b60005b83811015611e43578082015181840152602081019050611e28565b60008484015250505050565b6000601f19601f8301169050919050565b6000611e6b82611e09565b611e758185611e14565b9350611e85818560208601611e25565b611e8e81611e4f565b840191505092915050565b60006020820190508181036000830152611eb38184611e60565b905092915050565b6000819050919050565b611ece81611ebb565b8114611ed957600080fd5b50565b600081359050611eeb81611ec5565b92915050565b600060208284031215611f0757611f06611d44565b5b6000611f1584828501611edc565b91505092915050565b600073ffffffffffffffffffffffffffffffffffffffff82169050919050565b6000611f4982611f1e565b9050919050565b611f5981611f3e565b82525050565b6000602082019050611f746000830184611f50565b92915050565b611f8381611f3e565b8114611f8e57600080fd5b50565b600081359050611fa081611f7a565b92915050565b60008060408385031215611fbd57611fbc611d44565b5b6000611fcb85828601611f91565b9250506020611fdc85828601611edc565b9150509250929050565b611fef81611ebb565b82525050565b600060208201905061200a6000830184611fe6565b92915050565b60008060006060848603121561202957612028611d44565b5b600061203786828701611f91565b935050602061204886828701611f91565b925050604061205986828701611edc565b9150509250925092565b60006020828403121561207957612078611d44565b5b600061208784828501611f91565b91505092915050565b61209981611dd3565b81146120a457600080fd5b50565b6000813590506120b681612090565b92915050565b600080604083850312156120d3576120d2611d44565b5b60006120e185828601611f91565b92505060206120f2858286016120a7565b9150509250929050565b600080fd5b600080fd5b7f4e487b7100000000000000000000000000000000000000000000000000000000600052604160045260246000fd5b61213e82611e4f565b810181811067ffffffffffffffff8211171561215d5761215c612106565b5b80604052505050565b6000612170611d3a565b905061217c8282612135565b919050565b600067ffffffffffffffff82111561219c5761219b612106565b5b6121a582611e4f565b9050602081019050919050565b82818337600083830152505050565b60006121d46121cf84612181565b612166565b9050828152602081018484840111156121f0576121ef612101565b5b6121fb8482856121b2565b509392505050565b600082601f830112612218576122176120fc565b5b81356122288482602086016121c1565b91505092915050565b6000806000806080858703121561224b5761224a611d44565b5b600061225987828801611f91565b945050602061226a87828801611f91565b935050604061227b87828801611edc565b925050606085013567ffffffffffffffff81111561229c5761229b611d49565b5b6122a887828801612203565b91505092959194509250565b600080604083850312156122cb576122ca611d44565b5b60006122d985828601611f91565b92505060206122ea85828601611f91565b9150509250929050565b600067ffffffffffffffff82111561230f5761230e612106565b5b61231882611e4f565b9050602081019050919050565b6000612338612333846122f4565b612166565b90508281526020810184848401111561235457612353612101565b5b61235f8482856121b2565b509392505050565b600082601f83011261237c5761237b6120fc565b5b813561238c848260208601612325565b91505092915050565b6000602082840312156123ab576123aa611d44565b5b600082013567ffffffffffffffff8111156123c9576123c8611d49565b5b6123d584828501612367565b91505092915050565b7f4e487b7100000000000000000000000000000000000000000000000000000000600052602260045260246000fd5b6000600282049050600182168061242557607f821691505b602082108103612438576124376123de565b5b50919050565b7f4e6f204349447320617661696c61626c65000000000000000000000000000000600082015250565b6000612474601183611e14565b915061247f8261243e565b602082019050919050565b600060208201905081810360008301526124a381612467565b9050919050565b7f4e487b7100000000000000000000000000000000000000000000000000000000600052601160045260246000fd5b60006124e482611ebb565b91507fffffffffffffffffffffffffffffffffffffffffffffffffffffffffffffffff8203612516576125156124aa565b5b600182019050919050565b6000819050919050565b61253c61253782611ebb565b612521565b82525050565b60008160601b9050919050565b600061255a82612542565b9050919050565b600061256c8261254f565b9050919050565b61258461257f82611f3e565b612561565b82525050565b6000612596828661252b565b6020820191506125a68285612573565b6014820191506125b6828461252b565b602082019150819050949350505050565b7f4e487b7100000000000000000000000000000000000000000000000000000000600052601260045260246000fd5b600061260182611ebb565b915061260c83611ebb565b92508261261c5761261b6125c7565b5b828206905092915050565b7f4e487b7100000000000000000000000000000000000000000000000000000000600052603260045260246000fd5b7f697066733a2f2f00000000000000000000000000000000000000000000000000815250565b600081905092915050565b600061269282611e09565b61269c818561267c565b93506126ac818560208601611e25565b80840191505092915050565b60006126c382612656565b6007820191506126d38284612687565b915081905092915050565b60006060820190506126f36000830186611f50565b6127006020830185611fe6565b61270d6040830184611f50565b949350505050565b7f496e646578206f7574206f6620626f756e647300000000000000000000000000600082015250565b600061274b601383611e14565b915061275682612715565b602082019050919050565b6000602082019050818103600083015261277a8161273e565b9050919050565b600061278d8285612687565b91506127998284612687565b91508190509392505050565b60008190508160005260206000209050919050565b60006020601f8301049050919050565b600082821b905092915050565b6000600883026128077fffffffffffffffffffffffffffffffffffffffffffffffffffffffffffffffff826127ca565b61281186836127ca565b95508019841693508086168417925050509392505050565b6000819050919050565b600061284e61284961284484611ebb565b612829565b611ebb565b9050919050565b6000819050919050565b61286883612833565b61287c61287482612855565b8484546127d7565b825550505050565b600090565b612891612884565b61289c81848461285f565b505050565b5b818110156128c0576128b5600082612889565b6001810190506128a2565b5050565b601f821115612905576128d6816127a5565b6128df846127ba565b810160208510156128ee578190505b6129026128fa856127ba565b8301826128a1565b50505b505050565b600082821c905092915050565b60006129286000198460080261290a565b1980831691505092915050565b60006129418383612917565b9150826002028217905092915050565b61295a82611e09565b67ffffffffffffffff81111561297357612972612106565b5b61297d825461240d565b6129888282856128c4565b600060209050601f8311600181146129bb57600084156129a9578287015190505b6129b38582612935565b865550612a1b565b601f1984166129c9866127a5565b60005b828110156129f1578489015182556001820191506020850194506020810190506129cc565b86831015612a0e5784890151612a0a601f891682612917565b8355505b6001600288020188555050505b505050505050565b600081519050919050565b600082825260208201905092915050565b6000612a4a82612a23565b612a548185612a2e565b9350612a64818560208601611e25565b612a6d81611e4f565b840191505092915050565b6000608082019050612a8d6000830187611f50565b612a9a6020830186611f50565b612aa76040830185611fe6565b8181036060830152612ab98184612a3f565b905095945050505050565b600081519050612ad381611d7a565b92915050565b600060208284031215612aef57612aee611d44565b5b6000612afd84828501612ac4565b91505092915050565b6000604082019050612b1b6000830185611f50565b612b286020830184611fe6565b939250505056fea26469706673582212203ac943382fbae196703a547020887f3e2a3c988914d2305fac8e39c814d6e22764736f6c63430008140033",
  "linkReferences": {},
  "deployedLinkReferences": {}
}